{
  "_format": "hh-sol-artifact-1",
  "contractName": "TokenAvgPrice",
  "sourceName": "contracts/contract-first.sol",
  "abi": [
    {
      "inputs": [
        {
          "internalType": "address",
          "name": "initTokenAddress",
          "type": "address"
        }
      ],
      "stateMutability": "nonpayable",
      "type": "constructor"
    },
    {
      "inputs": [
        {
          "internalType": "uint8",
          "name": "monthIndex",
          "type": "uint8"
        }
      ],
      "name": "getMonthAvgPrice",
      "outputs": [
        {
          "internalType": "uint256",
          "name": "",
          "type": "uint256"
        }
      ],
      "stateMutability": "view",
      "type": "function"
    },
    {
      "inputs": [],
      "name": "getPrice",
      "outputs": [
        {
          "internalType": "uint256",
          "name": "",
          "type": "uint256"
        }
      ],
      "stateMutability": "view",
      "type": "function"
    },
    {
      "inputs": [
        {
          "internalType": "uint256",
          "name": "price",
          "type": "uint256"
        }
      ],
      "name": "setPrice",
      "outputs": [],
      "stateMutability": "nonpayable",
      "type": "function"
    },
    {
      "inputs": [],
      "name": "tokenAddres",
      "outputs": [
        {
          "internalType": "address",
          "name": "",
          "type": "address"
        }
      ],
      "stateMutability": "view",
      "type": "function"
    }
  ],
  "bytecode": "0x608060405234801561001057600080fd5b5060405161047338038061047383398101604081905261002f91610083565b6001600160a01b03811661005e5760405162461bcd60e51b8152600401610055906100b1565b60405180910390fd5b600080546001600160a01b0319166001600160a01b03929092169190911790556100e6565b600060208284031215610094578081fd5b81516001600160a01b03811681146100aa578182fd5b9392505050565b6020808252818101527f506c656173652073657420636f727265637420746f6b656e2061646472657373604082015260600190565b61037e806100f56000396000f3fe608060405234801561001057600080fd5b506004361061004c5760003560e01c806391b7f5ed1461005157806398d5fdca14610066578063a1c8226314610084578063cda58e4914610097575b600080fd5b61006461005f366004610238565b6100ac565b005b61006e61014c565b60405161007b919061028c565b60405180910390f35b61006e610092366004610250565b610172565b61009f6101d2565b60405161007b9190610278565b60006100b66101e1565b63ffffffff811660009081526001602052604081208490559091506100d96101fc565b60ff8116600090815260026020526040812060010180549293508592909190610103908490610295565b909155505060ff8082166000908152600260205260408120805460019391929161012f918591166102ad565b92506101000a81548160ff021916908360ff160217905550505050565b6000806101576101e1565b63ffffffff1660009081526001602052604090205491505090565b60ff8082166000908152600260209081526040808320815180830190925280549094168082526001909401549181019190915290916101b55760009150506101cd565b805160208201516101c99160ff16906102d2565b9150505b919050565b6000546001600160a01b031681565b600042816101f262015180836102d2565b60ff169250505090565b60004281601e61016d61021262015180856102d2565b61021c9190610308565b61022691906102e6565b6102319060016102ad565b9250505090565b600060208284031215610249578081fd5b5035919050565b600060208284031215610261578081fd5b813560ff81168114610271578182fd5b9392505050565b6001600160a01b0391909116815260200190565b90815260200190565b600082198211156102a8576102a861031c565b500190565b600060ff821660ff84168060ff038211156102ca576102ca61031c565b019392505050565b6000826102e1576102e1610332565b500490565b600060ff8316806102f9576102f9610332565b8060ff84160491505092915050565b60008261031757610317610332565b500690565b634e487b7160e01b600052601160045260246000fd5b634e487b7160e01b600052601260045260246000fdfea2646970667358221220eedf8127be21edd48646e2b6dbc0c2905f313e665418c1cb5fcbacc14f4f3cb864736f6c63430008000033",
  "linkReferences": {},
  "deployedLinkReferences": {}
}