{
  "_format": "hh-sol-artifact-1",
  "contractName": "SecondTokenAvgPrice",
  "sourceName": "contracts/contract-second.sol",
  "abi": [
    {
      "inputs": [
        {
          "internalType": "address",
          "name": "initTokenAddress",
          "type": "address"
        }
      ],
      "stateMutability": "nonpayable",
      "type": "constructor"
    },
    {
      "anonymous": false,
      "inputs": [
        {
          "indexed": true,
          "internalType": "address",
          "name": "previousOwner",
          "type": "address"
        },
        {
          "indexed": true,
          "internalType": "address",
          "name": "newOwner",
          "type": "address"
        }
      ],
      "name": "OwnershipTransferred",
      "type": "event"
    },
    {
      "inputs": [
        {
          "internalType": "uint8",
          "name": "monthIndex",
          "type": "uint8"
        }
      ],
      "name": "getMonthAvgPrice",
      "outputs": [
        {
          "internalType": "uint256",
          "name": "",
          "type": "uint256"
        }
      ],
      "stateMutability": "view",
      "type": "function"
    },
    {
      "inputs": [],
      "name": "getPrice",
      "outputs": [
        {
          "internalType": "uint256",
          "name": "",
          "type": "uint256"
        }
      ],
      "stateMutability": "view",
      "type": "function"
    },
    {
      "inputs": [],
      "name": "owner",
      "outputs": [
        {
          "internalType": "address",
          "name": "",
          "type": "address"
        }
      ],
      "stateMutability": "view",
      "type": "function"
    },
    {
      "inputs": [],
      "name": "renounceOwnership",
      "outputs": [],
      "stateMutability": "nonpayable",
      "type": "function"
    },
    {
      "inputs": [
        {
          "internalType": "uint256",
          "name": "price",
          "type": "uint256"
        }
      ],
      "name": "setPrice",
      "outputs": [],
      "stateMutability": "nonpayable",
      "type": "function"
    },
    {
      "inputs": [],
      "name": "tokenAddres",
      "outputs": [
        {
          "internalType": "address",
          "name": "",
          "type": "address"
        }
      ],
      "stateMutability": "view",
      "type": "function"
    },
    {
      "inputs": [
        {
          "internalType": "address",
          "name": "newOwner",
          "type": "address"
        }
      ],
      "name": "transferOwnership",
      "outputs": [],
      "stateMutability": "nonpayable",
      "type": "function"
    }
  ],
  "bytecode": "0x608060405234801561001057600080fd5b5060405161094338038061094383398101604081905261002f91610190565b61003f61003a6100ce565b6100d2565b6001600160a01b03811661006e5760405162461bcd60e51b815260040161006590610222565b60405180910390fd5b600180546001600160a01b0319166001600160a01b03831617905560408051808201909152601081526f037bbb732b91030b2323932b9b9901d160851b6020808301919091526100c891903390610122811b61037c17901c565b50610257565b3390565b600080546001600160a01b038381166001600160a01b0319831681178455604051919092169283917f8be0079c531659141344cd1fd0a4f28419497f9722a3daafe3b4186f6b6457e09190a35050565b61016b82826040516024016101389291906101be565b60408051601f198184030181529190526020810180516001600160e01b0390811663319af33360e01b1790915261016f16565b5050565b80516a636f6e736f6c652e6c6f67602083016000808483855afa5050505050565b6000602082840312156101a1578081fd5b81516001600160a01b03811681146101b7578182fd5b9392505050565b6000604082528351806040840152815b818110156101eb57602081870181015160608684010152016101ce565b818111156101fc5782606083860101525b506001600160a01b0393909316602083015250601f91909101601f191601606001919050565b6020808252818101527f506c656173652073657420636f727265637420746f6b656e2061646472657373604082015260600190565b6106dd806102666000396000f3fe608060405234801561001057600080fd5b506004361061007d5760003560e01c806398d5fdca1161005b57806398d5fdca146100bd578063a1c82263146100d2578063cda58e49146100e5578063f2fde38b146100ed5761007d565b8063715018a6146100825780638da5cb5b1461008c57806391b7f5ed146100aa575b600080fd5b61008a610100565b005b610094610154565b6040516100a191906104f8565b60405180910390f35b61008a6100b83660046104bf565b610163565b6100c5610276565b6040516100a191906105eb565b6100c56100e03660046104d7565b61029c565b6100946102fc565b61008a6100fb366004610491565b61030b565b6101086103c5565b6001600160a01b0316610119610154565b6001600160a01b0316146101485760405162461bcd60e51b815260040161013f906105b6565b60405180910390fd5b61015260006103c9565b565b6000546001600160a01b031690565b61016b6103c5565b6001600160a01b031661017c610154565b6001600160a01b0316146101a25760405162461bcd60e51b815260040161013f906105b6565b6101d660405180604001604052806012815260200171029b2ba3a34b7339030b2323932b9b9901d160751b8152503361037c565b60006101e0610419565b63ffffffff81166000908152600260205260408120849055909150610203610434565b60ff811660009081526003602052604081206001018054929350859290919061022d9084906105f4565b909155505060ff808216600090815260036020526040812080546001939192916102599185911661060c565b92506101000a81548160ff021916908360ff160217905550505050565b600080610281610419565b63ffffffff1660009081526002602052604090205491505090565b60ff8082166000908152600360209081526040808320815180830190925280549094168082526001909401549181019190915290916102df5760009150506102f7565b805160208201516102f39160ff1690610631565b9150505b919050565b6001546001600160a01b031681565b6103136103c5565b6001600160a01b0316610324610154565b6001600160a01b03161461034a5760405162461bcd60e51b815260040161013f906105b6565b6001600160a01b0381166103705760405162461bcd60e51b815260040161013f90610570565b610379816103c9565b50565b6103c1828260405160240161039292919061050c565b60408051601f198184030181529190526020810180516001600160e01b031663319af33360e01b179052610470565b5050565b3390565b600080546001600160a01b038381166001600160a01b0319831681178455604051919092169283917f8be0079c531659141344cd1fd0a4f28419497f9722a3daafe3b4186f6b6457e09190a35050565b6000428161042a6201518083610631565b60ff169250505090565b60004281601e61016d61044a6201518085610631565b6104549190610667565b61045e9190610645565b61046990600161060c565b9250505090565b80516a636f6e736f6c652e6c6f67602083016000808483855afa5050505050565b6000602082840312156104a2578081fd5b81356001600160a01b03811681146104b8578182fd5b9392505050565b6000602082840312156104d0578081fd5b5035919050565b6000602082840312156104e8578081fd5b813560ff811681146104b8578182fd5b6001600160a01b0391909116815260200190565b6000604082528351806040840152815b81811015610539576020818701810151606086840101520161051c565b8181111561054a5782606083860101525b506001600160a01b0393909316602083015250601f91909101601f191601606001919050565b60208082526026908201527f4f776e61626c653a206e6577206f776e657220697320746865207a65726f206160408201526564647265737360d01b606082015260800190565b6020808252818101527f4f776e61626c653a2063616c6c6572206973206e6f7420746865206f776e6572604082015260600190565b90815260200190565b600082198211156106075761060761067b565b500190565b600060ff821660ff84168060ff038211156106295761062961067b565b019392505050565b60008261064057610640610691565b500490565b600060ff83168061065857610658610691565b8060ff84160491505092915050565b60008261067657610676610691565b500690565b634e487b7160e01b600052601160045260246000fd5b634e487b7160e01b600052601260045260246000fdfea26469706673582212204aa72ae493bafe771bf0ed0abcfe152e97cfa7fd68aff042ddaa805a5bdaf21264736f6c63430008000033",
  "linkReferences": {},
  "deployedLinkReferences": {}
}